:100F2C00646174650068696768006C6F770074654C
:100F3C0078745F64617900746578745F6E69676852
:100F4C00740077696E645F73706565640077696EB1
:100F5C00645F7363616C65007261696E66616C6C71
:100F6C00004F4B00BEAFB1A821212121212121210D
:100F7C002121212121212121212121212000415424
:100F8C002B43495053454E443D322C25640D0A00E9
:100F9C004552524F520054656D702C48756D693A2C
:100FAC0025732000646174653A25730074656D7057
:100FBC003A25737E257300746578745F6461793AA1
:100FCC00257300746578745F6E696768743A25736D
:100FDC000077696E645F737065643A25736D2F32A8
:100FEC000077696E645F7363616C653A25732020CA
:100FFC00007261696E66616C6C3A2573000D0A00B3
:10100C0020202020202020202020202020202000F4
:10101C00646174653A2573202020202020007465BB
:10102C0078745F6461793A25732020007465787454
:10103C005F6E696768743A257320200077696E6467
:10104C005F737065643A25736D2F7320007261694C
:10105C006E66616C6C3A257320200041540D0A00B9
:10106C0041542B4349504D55583D310D0A004154C4
:10107C002B43574A41503D226C69616E67222C22EA
:10108C006C69616E676C69616E67220D0A00000005
:10109C000041542B43574D4F44453D310D0A000040
:1010AC0041542B43495053544152543D312C2254FA
:1010BC004350222C226170692E73656E69766572BD
:1010CC0073652E636F6D222C38300D0A0041542B42
:1010DC0043495053544152543D322C2254435022D4
:1010EC002C223139322E3136382E3133372E3537DA
:1010FC00222C383839390D0A0041542B43495053AE
:10110C00544152543D312C22544350222C226170B4
:10111C00692E73656E6976657273652E636F6D22C9
:10112C002C38300D0A0041542B43495053454E4442
:10113C000D0A0041542B43495053454E443D312C2C
:10114C003132380D0A004745542068747470733A74
:10115C002F2F6170692E73656E6976657273652EBB
:10116C00636F6D2F76332F776561746865722F64AA
:10117C0061696C792E6A736F6E3F6B65793D53575D
:10118C0061436D75334C6D7A545F6B533231672606
:10119C006C6F636174696F6E3D7A68656E677A68AF
:1011AC006F75266C616E67756167653D656E26753A
:1011BC006E69743D632673746172743D302664618C
:0711CC0079733D310D0A00AB
:10098700012D00012C002023B4000000000000000E
:100997000000000000000000000000000000000050
:1009A700000000000000000000000000199B4154F7
:1009B7002B43495053454E443D312C3132380000CA
:1009C700000000000000000C4900000000000000CB
:1009D70000000000000A690000000000000000009D
:1009E700000AEB0000000000000000000014D70020
:1009F70000000000000000000000000000000000F0
:100A07000000001473000000000000000000000058
:100A17000000000000000000001455000000000066
:100A270000000000000000000000000000000014AB
:100A3700350000000000000000000000000000007A
:100A47000000000000148700000000000000000004
:100A5700000000000000000000000061F40000003A
:100A6700000000000000000000000000000000007F
:100A7700000000000000000000000000000000006F
:100A8700000000000000000000000000000000005F
:100A9700000000000000000000000000000000004F
:100AA700000000000000000000000000000000003F
:100AB700000000000000000000000000000000002F
:100AC700000000000000000000000000000000001F
:100AD700000000000000000000000000000000000F
:100AE70000000000000000000000000000000000FF
:100AF70000000000000000000000000000000000EF
:100B070000000000000000000000000000000000DE
:100B170000000000000000000000000000000000CE
:100B270000000000000000000000000000000000BE
:100B370000000000000000000000000000000000AE
:100B4700000000000000000000000000000000009E
:100B5700000000000000000000000000000000008E
:100B6700000000000000000000000000000000007E
:100B7700000000000000000000000000000000006E
:100B8700000000000000000000000000000000005E
:100B9700000000000000000000000000000000004E
:100BA700000000000000000000000000000000003E
:100BB700000000000000000000000000000000002E
:100BC700000000000000000000000000000000001E
:100BD700000000000000000000000000000000000E
:100BE70000000000000000000000000000000000FE
:100BF70000000000000000000000000000000000EE
:100C070000000000000000000000000000000000DD
:100C170000000000000000000000000000000000CD
:100C270000000000000000000000000000000000BD
:100C370000000000000000000000000000000000AD
:100C4700000000000000000000000000000000009D
:100C570000000002330000013000012E00013100C6
:030C670001320057
:1019D7007E017FF47D007B017A0079001215217F5B
:0319E700D07E07A8
:1019EA00D3EF9400EE940040167D7CEDD3940074FE
:0F19FA0080948040031D80F3EF1F70E41E80E196
:011A090022BA
:1011D300E4FF750EFF750F0F75102C7B017A0079F4
:1011E3000012183F8B088A09890AE92407F9E43AAF
:1011F300FA78497C007D007E007F0A1214CEE4FF5A
:10120300EFC3940A74809480500D74492FF8E6B4A8
:101213002202E4F60F80E9750EFF750F0F7510318A
:101223007B017A00790012183F8B088A09890AE941
:101233002407F9E43AFA78697C007D007E007F0395
:101243001214CEE4FFEFC3940374809480500D74A2
:10125300692FF8E6B42202E4F60F80E9750EFF75F4
:101263000F0F7510367B017A00790012183F8B0837
:101273008A09890AE92406F9E43AFA78EB7C007DC5
:10128300007E007F031214CEE4FFEFC39403748047
:101293009480500D74EB2FF8E6B42202E4F60F802D
:1012A300E9750EFF750F0F75103A7B017A0079000F
:1012B30012183F8B088A09890AE9240BF9E43AFAE0
:1012C30078D77C007D007E007F0A1214CEE4FFEF06
:1012D300C3940A74809480500D74D72FF8E6B42217
:1012E30002E4F60F80E9750EFF750F0F7510437B4F
:1012F300017A00790012183F8B088A09890AE924C8
:101303000DF9E43AFA78737C007D007E007F0A12BF
:1013130014CEE4FFEFC3940A74809480500D747369
:101323002FF8E6B42202E4F60F80E9750EFF750F7D
:101333000F75104E7B017A00790012183F8B088AD3
:1013430009890AE9240DF9E43AFA78557C007D000D
:101353007E007F051214CEE4FFEFC39405748094DE
:1013630080500D74552FF8E6B42202E4F60F80E99D
:10137300750EFF750F0F7510597B017A00790012F6
:10138300183F8B088A09890AE9240DF9E43AFA78A7
:10139300357C007D007E007F051214CEE4FFEFC391
:1013A300940574809480500D74352FF8E6B42202AE
:1013B300E4F60F80E9750EFF750F0F7510647B015E
:1013C3007A00790012183F8B088A09890AE9240BED
:1013D300F9E43AFA78877C007D007E007F051214D9
:1013E300CEE4FFEFC3940574809480500D74352FC1
:0A13F300F8E6B42202E4F60F80E9E8
:0113FD0022CD
:10168300E4F508F533F5347BFF7A1079D912196440
:101693001219E6750EFF750F0F75106D7B017A0039
:1016A300790012183FE94A7012C3E5089405748063
:1016B300948050071219E6050880D81219D7E4F56B
:1016C300087E017FF4FD7B017A007900121521E485
:1016D300F533F5347BFF7A10799D1219641219E6FC
:1016E300750EFF750F0F75106D7B017A007900126F
:1016F300183FE94A7012C3E508940574809480503A
:10170300071219E6050880D87E017FF47D007B016E
:0E1713007A0079001215217FB87E0B0219EAC8
:10002600E52D70030200CA7E007F237D007B007AE7
:100036000079B41215217E007F197D007B007A00BD
:10004600799B121521750CFF750D0F750E707B00CF
:100056007A0079B41206877B007A0079B4121AC343
:100066008E0F8F10750CFF750D0F750E8A7B007A3B
:1000760000799B1206877B007A00799B121964E44B
:10008600F533F5347FDC7E051219EA7E017FF47DB7
:10009600007B017A0079001215217B007A0079B481
:1000A6001219647FE87E031219EA750EFF750F0FA9
:1000B60075109C7B017A00790012183FEA494B6063
:1000C600031216837E007F237D007B007A0079B4BD
:1000D6001215217E007F197D007B007A00799B1224
:1000E6001521750CFF750D0F750EA2750F00751095
:1000F600007511227B007A0079B41206877B007A9C
:100106000079B4121AC38E0F8F10750CFF750D0F80
:10011600750E8A7B007A00799B1206877B007A002F
:10012600799B121964E4F533F5347FDC7E051219E8
:10013600EA7E017FF47D007B017A007900121521A9
:100146007B007A0079B41219647FE87E031219EAFB
:10015600750EFF750F0F75109C7B017A00790012E2
:10016600183FEA494B60031216837E007F237D0009
:100176007B007A0079B41215217E007F197D007B01
:10018600007A00799B121521750CFF750D0F750EFF
:10019600B0750F007510007511497B007A0079B4AF
:1001A6001206877B007A0079B4121AC38E0F8F105D
:1001B600750CFF750D0F750E8A7B007A00799B1200
:1001C60006877B007A00799B121964E4F533F534CF
:1001D6007FDC7E051219EA7E017FF47D007B017AC1
:1001E6000079001215217B007A0079B41219647F18
:1001F600E87E031219EA750EFF750F0F75109C7BCA
:10020600017A00790012183FEA494B6003121683FF
:100216007E007F237D007B007A0079B41215217E53
:10022600007F197D007B007A00799B121521750CE1
:10023600FF750D0F750EB8750F007510007511EB73
:100246007512007513007514697B007A0079B41273
:1002560006877B007A0079B4121AC38E0F8F107549
:100266000CFF750D0F750E8A7B007A00799B1206BE
:10027600877B007A00799B121964E4F533F5347FA5
:10028600DC7E051219EA7E017FF47D007B017A008F
:1002960079001215217B007A0079B41219647FE87F
:1002A6007E031219EA750EFF750F0F75109C7B0100
:1002B6007A00790012183FEA494B60031216837ED2
:1002C600007F237D007B007A0079B41215217E0021
:1002D6007F197D007B007A00799B121521750CFF32
:1002E600750D0F750EC3750F007510007511D77B50
:1002F600007A0079B41206877B007A0079B4121A64
:10030600C38E0F8F10750CFF750D0F750E8A7B004F
:100316007A00799B1206877B007A00799B12196412
:10032600E4F533F5347FDC7E051219EA7E017FF4AD
:100336007D007B017A0079001215217B007A007915
:10034600B41219647FE87E031219EA750EFF750F61
:100356000F75109C7B017A00790012183FEA494B11
:1003660060031216837E007F237D007B007A00796E
:10037600B41215217E007F197D007B007A00799BDF
:10038600121521750CFF750D0F750ECF750F0075C3
:1003960010007511737B007A0079B41206877B0012
:1003A6007A0079B4121AC38E0F8F10750CFF750D73
:1003B6000F750E8A7B007A00799B1206877B007A7E
:1003C60000799B121964E4F533F5347FDC7E05125F
:1003D60019EA7E017FF47D007B017A00790012150F
:1003E600217B007A0079B41219647FE87E03121922
:1003F600EA750EFF750F0F75109C7B017A00790068
:1004060012183FEA494B60031216837E007F237D54
:10041600007B007A0079B41215217E007F197D00D9
:100426007B007A00799B121521750CFF750D0F75EF
:100436000EDD750F007510007511557B007A007979
:10044600B41206877B007A0079B4121AC38E0F8F16
:1004560010750CFF750D0F750E8A7B007A00799B5F
:100466001206877B007A00799B121964E4F533F54E
:10047600347FDC7E051219EA7E017FF47D007B0164
:100486007A0079001215217B007A0079B41219647A
:100496007FE87E031219EA750EFF750F0F75109C23
:1004A6007B017A00790012183FEA494B6003121665
:1004B600837E007F237D007B007A0079B4121521AC
:1004C6007E007F197D007B007A00799B12152175CD
:1004D6000CFF750D0F750EED750F0075100075117B
:1004E600357B007A0079B41206877B007A0079B4EE
:1004F600121AC38E0F8F10750CFF750D0F750E8AAD
:100506007B007A00799B1206877B007A00799B1222
:100516001964E4F533F5347FDC7E051219EA7E01B1
:100526007FF47D007B017A0079001215217B007A29
:100536000079B41219647FE87E031219EA750EFF7A
:10054600750F0F75109C7B017A00790012183FEA2F
:10055600494B60031216837E007F237D007B007A61
:100566000079B41215217E007F197D007B007A0088
:10057600799B121521750CFF750D0F750EFD750F04
:10058600007510007511877B007A0079B412068712
:100596007B007A0079B4121AC3EF2402F510E43E08
:1005A600F50F750CFF750D0F750E8A7B007A0079B5
:1005B6009B1206877B007A00799B121964E4F53357
:1005C600F5347FDC7E051219EA750EFF750F0F757F
:1005D600106D7B017A00790012183FE94A70031208
:1005E60016837E017FF47D007B017A007900121567
:1005F600217B007A0079B41219647BFF7A1079099D
:100606001219647FE87E031219EA750EFF750F0F43
:1006160075109C7B017A00790012183FEA494B60FD
:050626000312168322FF
:1015AE008F087BFF7A10790C7F4012199EE5087028
:1015BE0014750CFF750D10750E1CF50F751000755A
:1015CE00114902166FE5086401701B750CFF750D4D
:1015DE000F750EB8F50F7510007511EBF51275132A
:1015EE0000751469807BE50864027013750CFF7535
:1015FE000D10750E2AF50F7510007511D78062E566
:10160E000864037013750CFF750D10750E38F50F09
:10161E007510007511738049E50864047013750C1C
:10162E00FF750D10750E48F50F751000751155806C
:10163E0030E50864057013750CFF750D0F750EED12
:10164E00F50F7510007511358017E50864067024C6
:10165E00750CFF750D10750E59F50F75100075117F
:10166E0087FB7A0079B41206877B007A0079B47F03
:05167E004012199E223C
:030023000218C1FF
:1018C100C0E0C083C082C0D075D000C00630984847
:1018D100C298752C0585992FD3E53494D2E53394BC
:1018E10000400BE52E7007F533F534752E01C3E585
:1018F1003494F4E533940150190534E534AE337072
:10190100020533142400F58274003EF583E52FF0BF
:101911008006753300753400D006D0D0D082D083D4
:03192100D0E032E1
:0F1AD800758901E4F58CF58AC2A9D2AFC28C22C0
:100C6D00D2A3C290121A937FC87E001219EA121AEB
:100C7D00D8121A79D2A3D290E4F533F5347BFF7AEA
:100C8D001079671219641219E6750EFF750F0F753D
:100C9D00106D7B017A00790012183FE94A60EA7EF7
:100CAD00017FF47D007B017A007900121521E4F5B6
:100CBD0033F5347BFF7A10796C1219641219E675CD
:100CCD000EFF750F0F75106D7B017A0079001218EC
:100CDD003FE94A60EA7E017FF47D007B017A00796D
:100CED00001215217FE87E031219EAE4F533F5347D
:100CFD007BFF7A10797A1219647F887E131219EAB4
:100D0D00750EFF750F0F75106D7B017A007900124E
:100D1D00183FE94A60EA1219D7E4F533F5347BFF41
:100D2D007A10799D1219641219E6750EFF750F0F61
:100D3D0075106D7B017A00790012183FE94A60EA5F
:100D4D007E017FF47D007B017A0079001215217FF1
:100D5D00E87E031219EAE4F533F5347BFF7A107956
:100D6D00AC1219641219E6750EFF750F0F75106D23
:100D7D007B017A00790012183FE94A60EA7E017F13
:100D8D00F47D007B017A0079001215217FE87E0346
:100D9D001219EAE4F533F5347BFF7A11793F121914
:100DAD00641219E6750EFF750F0F75106D7B017AC4
:100DBD0000790012183FE94A60EA7E017FF47D0058
:100DCD007B017A007900121521E4F52EF533F53407
:100DDD007BFF7A1179521219641219E6750EFF759F
:100DED000F0F75102C7B017A00790012183FE94A1C
:100DFD0060EA7FE87E031219EAD3E5349464E533A3
:100E0D0094005003020EC31211D37E017FF47D00B6
:100E1D007B017A007900121521E4F533F5347BFF5F
:100E2D007A10796C1219641219E6750EFF750F0F91
:100E3D0075106D7B017A00790012183FE94A60EA5E
:100E4D007E017FF47D007B017A007900121521E48B
:100E5D00F533F5347BFF7A10799D1219641219E67A
:100E6D00750EFF750F0F75106D7B017A00790012ED
:100E7D00183FE94A60EA7E017FF47D007B017A002C
:100E8D0079001215217F887E131219EAE4F533F5E6
:100E9D00347BFF7A1079D91219641219E6750EFF99
:100EAD00750F0F75106D7B017A00790012183FE9EF
:100EBD004A60EA1219D77FC87E001219EA052CC3C1
:100ECD00E52C940674809480404CE4F52C20A10907
:100EDD00C2A3C290752D018007D2A3D290E4F52D47
:100EED001217217B007A007922E4FF12199E053238
:100EFD00C3E532940674809480401BE4F532AF3123
:100F0D001215AE0531D3E5319406748094804003FB
:0F0F1D00E4F5311200267FC87E001219EA809E8B
:020C6A00C109BE
:031B1200DFFE22D1
:10000300D3EF9400EE940040147D7C7C00ED1D70D2
:0D001300011CED4C70F7EF1F70E61E80E33E
:0100200022BD
:101AAC00D2A07F02121B12C2A07F1E7E0012000366
:071ABC00D2A07F1E021B12E5
:101A0A00E4FED209FDEDC394087480948050163028
:101A1A00A0FD7F08121B12EE25E0FE30A0010E2069
:091A2A00A0FD0D80E0C209AF0629
:011A33002290
:10172100121AAC30A0030217B230A0FD7F28121BA1
:1017310012121A0A8F08121A0A8F09121A0A8F0A2C
:10174100121A0AA907121A0A8F0D7F19121B12E524
:10175100082509FFE433FE7C00EF250AFFEC3EFE7D
:10176100E92FFFEC3EFEEFB50D0DECB50609AA0819
:1017710085090BAB0A890C752252752348EA75F06D
:101781000A842430F524EA75F00A84E5F02430F562
:1017910025752625752720EB75F00A842430F52858
:1017A100EB75F00A84E5F02430F529752A27752BAD
:0117B10043F4
:0117B2002214
:10192400C2B68F807F017E00121935D2B47F057E46
:0119340000B2
:10193500D3EF9400EE940040257DC7EDD394007459
:1019450080948040127C01ECD39400748094804094
:0E195500031C80F31D80E4EF1F70D51E80D2AE
:011963002261
:0A1AFE00C2B4C2B5121924C2B4220A
:0A1B0800C2B4D2B5121924C2B422EF
:101A93007F38121AFE7F0C121AFE7F06121AFE7F7F
:091AA30001121AFE7F80021AFEF6
:06199E008B098A0A890B87
:1019A400EF2480FF121AFEE4F50CAB09AA0AA90B76
:1019B400121AC3C3E50C9FE49E5017AB09AA0AA9E7
:1019C4000B850C827583001214F4FF121B08050C9E
:0219D40080D8B9
:0119D60022EE
:0B1AF300EF1FAC0670011E4C70F622C5
:101A5B00D3EF9400EE940040147D6E7C00ED1D706E
:0D1A6B00011CED4C70F7EF1F70E61E80E3CC
:011A7800224B
:101A790075985075CDFF75CCDC75CBFF75CADCD276
:0A1A8900CCD2CDC2C9C2CBD2CA2212
:0C1AE700C2AC8F993099FDC299D2AC229C
:061964008B098A0A890BC1
:10196A00121AC3781EA60608A607E4781DF6781D83
:10197A00E6C3781F96E418965019AB09AA0AA90B70
:10198A0018E6F5827583001214F4FF121AE7781D1F
:03199A000680DBE9
:01199D002227
:030000000217B331
:0C17B300787FE4F6D8FD7581F40217FA87
:1013FE00E709F608DFFA8046E709F208DFFA803ED1
:10140E0088828C83E709F0A3DFFA8032E309F608BD
:10141E00DFFA8078E309F208DFFA807088828C8325
:10142E00E309F0A3DFFA806489828A83E0A3F608D9
:10143E00DFFA805889828A83E0A3F208DFFA804CB3
:10144E0080D280FA80C680D4806980F2803380108A
:10145E0080A680EA809A80A880DA80E280CA8033F3
:10146E0089828A83ECFAE493A3C8C582C8CCC5836B
:10147E00CCF0A3C8C582C8CCC583CCDFE9DEE7803B
:10148E000D89828A83E493A3F608DFF9ECFAA9F0BA
:10149E00EDFB2289828A83ECFAE0A3C8C582C8CC10
:1014AE00C583CCF0A3C8C582C8CCC583CCDFEADE29
:1014BE00E880DB89828A83E493A3F208DFF980CC8B
:1014CE0088F0EF60010E4E60C388F0ED2402B40484
:1014DE000050B9F582EB2402B4040050AF2323452B
:0614EE00822390144E73EE
:1014F400BB010CE58229F582E5833AF583E02250AD
:1015040006E92582F8E622BBFE06E92582F8E222F6
:0D151400E58229F582E5833AF583E4932210
:10062B00E518240CF8E60518227809300702780C37
:10063B00E475F00112157802154D2000EB7F2ED2D8
:10064B00008018EF540F2490D43440D4FF30040BA7
:10065B00EF24BFB41A0050032461FFE519600215A3
:10066B0019051CE51C7002051B30070D7809E47594
:10067B00F001121578EF021566021A347403D207D3
:10068B008003E4C207F5188B098A0A890BE4F51974
:10069B00F51BF51CE51960077F2012066680F575C2
:1006AB001AFFC201C200C202C203C205C206C208BF
:1006BB00120634FF700D3007057F00120677AF1C52
:1006CB00AE1B22B4255FC2D5C204120634FF24D060
:1006DB00B40A00501A75F00A781930D50508B6FF20
:1006EB000106C6A426F620D5047002D20380D924B5
:1006FB00CFB41A00EF5004C2E5D204020877D2013E
:10070B0080C6D20080C0D20280BCD2D580BAD205BE
:10071B0080B47F201206662002077401B5190040D1
:10072B00F112062BFF12066602069FD208D2068034
:10073B009512062BFB12062BFA12062BF94A4B705D
:10074B000679487A097BFF20022EE519602A7E0084
:10075B008E827583001214F460060EEE651A70F02B
:10076B00C2D5EBC0E0EAC0E0E9C0E0EE1208BED0B3
:10077B00E0F9D0E0FAD0E0FB12154DFF60AAEBC018
:10078B00E0EAC0E0E9C0E0120666D0E02401F9D04F
:10079B00E03400FAD0E0FBE51A0460DCD51AD9800E
:1007AB00877BFF7A0879BAD202809C791080027914
:1007BB0008C206C2088008D2D5790A8004790AC219
:1007CB00D5E51A047002F51AE4FAFDFEFF12062BAA
:1007DB00FC7B0820011312062BFD7B1030000A1244
:1007EB00062BFE12062BFF7B20EC3382D592D550C5
:1007FB0013C3E43000069FFFE49EFEE42001039D3B
:10080B00FDE49CFCE4CBF8C201EC700CCFCECDCC5C
:10081B00E824F8F870F38017C3EF33FFEE33FEEDE7
:10082B0033FDEC33FCEB33FB994002FB0FD8E9EBC8
:10083B00300105F8D0E0C448B201C0E00AEC4D4EDF
:10084B004F78207B0070C2EAB51A0040BCC0E012A2
:10085B0008C0D0F0D0E0200104C4C0E0C4B201C095
:10086B00F012064FD0F0D5F0EB02069F1215880759
:10087B003C5307B658070D4C07094207BA4F07C23E
:0F088B004407C24907224307C85507AC4607ACCC
:10089A004507AC4709685007112D07152E07382B55
:1008AA0007192307362009512A06D14800000730C4
:1008BA003F3F3F00790AA2D5200314300509B91039
:1008CA00020404B9080104A2D5200602500104203A
:1008DA0002689202B519005034C0E07F2030031933
:1008EA007F30A20272067205500F120917C202C2A5
:1008FA0006C205C2087F30800F300503E9C0E01246
:10090A000666300503D0E0F9D0E0B519CC300517FA
:10091A007F30B9100C1206667F583004077F788042
:10092A0003B908031206663002057F2D0206667FA8
:10093A00202008F87F2B2006F322920280CF286E0F
:10094A00756C6C2900D20112062B3001F8C20178AD
:10095A001930D50108F60206D12D5043495812061E
:10096A002B2403B405004001E4900963931206574F
:0D097A00743A120657D2037519040207B62D
:101AC300E4FFFE12154D600C0FEF70010E09E97073
:051AD300F20A80EF2281
:10183F008B0B8A0C890DAB0EAA0FA91012154D60D8
:10184F0063AB0BAA0CA90D12154D605F850E1185A8
:10185F000F128510138B148A158916AB11AA12A9B2
:10186F001312154DFF6023AB14AA15A91612154DAF
:10187F006F7017042513F513E43512F51274012553
:10188F0016F516E43515F51580D1AB11AA12A9136B
:10189F0012154D7002800D7401250DF50DE4350CF8
:1018AF00F50C809DAB0BAA0CA90D227B007A007959
:0218BF00002205
:10152100EF4E6012EF60010EEDBB010B89828A83E1
:10153100F0A3DFFCDEFA2289F05007F709DFFCA9EE
:0C154100F022BBFEFCF309DFFCA9F02245
:1017BF00020C6DE493A3F8E493A34003F68001F2C7
:1017CF0008DFF48029E493A3F85407240CC8C3332B
:1017DF00C4540F4420C8834004F456800146F6DFFA
:1017EF00E4800B0102040810204080900987E47EFA
:1017FF00019360BCA3FF543F30E509541FFEE493EF
:10180F00A360010ECF54C025E060A840B8E493A3B5
:10181F00FAE493A3F8E493A3C8C582C8CAC583CAE0
:10182F00F0A3C8C582C8CAC583CADFE9DEE780BE98
:010C6C000087
:10154D00BB010689828A83E0225002E722BBFE029C
:09155D00E32289828A83E49322CF
:10156600BB010689828A83F0225002F722BBFE0164
:02157600F3225E
:10157800FAE6FB0808E6F925F0F618E6CA3AF62274
:10158800D083D082F8E4937012740193700DA3A3F2
:1015980093F8740193F5828883E473740293686006
:0615A800EFA3A3A380DF06
:101A3400EFB40A07740D121A3F740A309811A8996A
:101A4400B8130CC2983098FDA899C298B811F63012
:071A540099FDC299F59922EA
:00000001FF
